{
  "contractName": "BasicNFTFunctionsAndModifiers",
  "abi": [
    {
      "inputs": [],
      "stateMutability": "nonpayable",
      "type": "constructor"
    },
    {
      "anonymous": false,
      "inputs": [
        {
          "indexed": true,
          "internalType": "uint256",
          "name": "tokenId",
          "type": "uint256"
        },
        {
          "indexed": true,
          "internalType": "address",
          "name": "owner",
          "type": "address"
        },
        {
          "indexed": false,
          "internalType": "string",
          "name": "tokenURI",
          "type": "string"
        }
      ],
      "name": "NFTMinted",
      "type": "event"
    },
    {
      "inputs": [
        {
          "internalType": "address",
          "name": "",
          "type": "address"
        }
      ],
      "name": "minters",
      "outputs": [
        {
          "internalType": "bool",
          "name": "",
          "type": "bool"
        }
      ],
      "stateMutability": "view",
      "type": "function"
    },
    {
      "inputs": [
        {
          "internalType": "uint256",
          "name": "",
          "type": "uint256"
        }
      ],
      "name": "nfts",
      "outputs": [
        {
          "internalType": "address",
          "name": "owner",
          "type": "address"
        },
        {
          "internalType": "string",
          "name": "tokenURI",
          "type": "string"
        }
      ],
      "stateMutability": "view",
      "type": "function"
    },
    {
      "inputs": [],
      "name": "owner",
      "outputs": [
        {
          "internalType": "address",
          "name": "",
          "type": "address"
        }
      ],
      "stateMutability": "view",
      "type": "function"
    },
    {
      "inputs": [
        {
          "internalType": "uint256",
          "name": "_tokenId",
          "type": "uint256"
        },
        {
          "internalType": "string",
          "name": "_tokenURI",
          "type": "string"
        }
      ],
      "name": "mintNFT",
      "outputs": [],
      "stateMutability": "nonpayable",
      "type": "function"
    },
    {
      "inputs": [
        {
          "internalType": "uint256",
          "name": "_tokenId",
          "type": "uint256"
        },
        {
          "internalType": "address",
          "name": "_newOwner",
          "type": "address"
        }
      ],
      "name": "transferOwnership",
      "outputs": [],
      "stateMutability": "nonpayable",
      "type": "function"
    },
    {
      "inputs": [
        {
          "internalType": "uint256",
          "name": "_tokenId",
          "type": "uint256"
        }
      ],
      "name": "getOwner",
      "outputs": [
        {
          "internalType": "address",
          "name": "",
          "type": "address"
        }
      ],
      "stateMutability": "view",
      "type": "function"
    },
    {
      "inputs": [
        {
          "internalType": "uint256",
          "name": "_tokenId",
          "type": "uint256"
        }
      ],
      "name": "getTokenURI",
      "outputs": [
        {
          "internalType": "string",
          "name": "",
          "type": "string"
        }
      ],
      "stateMutability": "view",
      "type": "function"
    },
    {
      "inputs": [
        {
          "internalType": "address",
          "name": "_minter",
          "type": "address"
        }
      ],
      "name": "grantMinter",
      "outputs": [],
      "stateMutability": "nonpayable",
      "type": "function"
    },
    {
      "inputs": [
        {
          "internalType": "address",
          "name": "_minter",
          "type": "address"
        }
      ],
      "name": "revokeMinter",
      "outputs": [],
      "stateMutability": "nonpayable",
      "type": "function"
    }
  ],
  "bytecode": "0x6080604052348015600f57600080fd5b5060028054600160a060020a031916339081179091556000908152600160208190526040909120805460ff191690911790556109f9806100506000396000f3fe608060405234801561001057600080fd5b50600436106100b0576000357c0100000000000000000000000000000000000000000000000000000000900480633bb3a24d116100835780633bb3a24d1461011a5780638da5cb5b1461013a578063c41a360a14610165578063cfbd48851461018e578063f46eccc4146101a157600080fd5b80631a0c8fa0146100b5578063261707fa146100ca578063265aa621146100dd57806329507f7314610107575b600080fd5b6100c86100c336600461063b565b6101d4565b005b6100c86100d8366004610712565b610372565b6100f06100eb366004610734565b6103c6565b6040516100fe929190610793565b60405180910390f35b6100c86101153660046107bd565b610475565b61012d610128366004610734565b610519565b6040516100fe91906107e9565b60025461014d90600160a060020a031681565b604051600160a060020a0390911681526020016100fe565b61014d610173366004610734565b600090815260208190526040902054600160a060020a031690565b6100c861019c366004610712565b6105be565b6101c46101af366004610712565b60016020526000908152604090205460ff1681565b60405190151581526020016100fe565b3360009081526001602052604090205460ff166102615760405160e560020a62461bcd02815260206004820152602360248201527f596f7520617265206e6f7420617574686f72697a656420746f206d696e74204e60448201527f465473000000000000000000000000000000000000000000000000000000000060648201526084015b60405180910390fd5b600082815260208190526040902054600160a060020a0316156102c95760405160e560020a62461bcd02815260206004820152601760248201527f546f6b656e20494420616c7265616479206578697374730000000000000000006044820152606401610258565b60408051808201825233815260208082018481526000868152918290529290208151815473ffffffffffffffffffffffffffffffffffffffff1916600160a060020a03909116178155915190918291600182019061032790826108a0565b5090505033600160a060020a0316837f06becd955c918828f6e985541acbf49cc842c9e9bd569fffc7698e721ef135758460405161036591906107e9565b60405180910390a3505050565b600254600160a060020a0316331461039f5760405160e560020a62461bcd02815260040161025890610966565b600160a060020a03166000908152600160208190526040909120805460ff19169091179055565b60006020819052908152604090208054600182018054600160a060020a0390921692916103f2906107fc565b80601f016020809104026020016040519081016040528092919081815260200182805461041e906107fc565b801561046b5780601f106104405761010080835404028352916020019161046b565b820191906000526020600020905b81548152906001019060200180831161044e57829003601f168201915b5050505050905082565b600082815260208190526040902054600160a060020a031633146104de5760405160e560020a62461bcd02815260206004820152601660248201527f596f7520646f6e2774206f776e2074686973204e4654000000000000000000006044820152606401610258565b600091825260208290526040909120805473ffffffffffffffffffffffffffffffffffffffff1916600160a060020a03909216919091179055565b6000818152602081905260409020600101805460609190610539906107fc565b80601f0160208091040260200160405190810160405280929190818152602001828054610565906107fc565b80156105b25780601f10610587576101008083540402835291602001916105b2565b820191906000526020600020905b81548152906001019060200180831161059557829003601f168201915b50505050509050919050565b600254600160a060020a031633146105eb5760405160e560020a62461bcd02815260040161025890610966565b600160a060020a03166000908152600160205260409020805460ff19169055565b7f4e487b7100000000000000000000000000000000000000000000000000000000600052604160045260246000fd5b6000806040838503121561064e57600080fd5b82359150602083013567ffffffffffffffff8082111561066d57600080fd5b818501915085601f83011261068157600080fd5b8135818111156106935761069361060c565b604051601f8201601f19908116603f011681019083821181831017156106bb576106bb61060c565b816040528281528860208487010111156106d457600080fd5b8260208601602083013760006020848301015280955050505050509250929050565b8035600160a060020a038116811461070d57600080fd5b919050565b60006020828403121561072457600080fd5b61072d826106f6565b9392505050565b60006020828403121561074657600080fd5b5035919050565b6000815180845260005b8181101561077357602081850181015186830182015201610757565b506000602082860101526020601f19601f83011685010191505092915050565b600160a060020a03831681526040602082015260006107b5604083018461074d565b949350505050565b600080604083850312156107d057600080fd5b823591506107e0602084016106f6565b90509250929050565b60208152600061072d602083018461074d565b60028104600182168061081057607f821691505b602082108103610849577f4e487b7100000000000000000000000000000000000000000000000000000000600052602260045260246000fd5b50919050565b601f82111561089b5760008160005260206000206020601f860104810160208610156108785750805b6020601f860104820191505b8181101561089757828155600101610884565b5050505b505050565b815167ffffffffffffffff8111156108ba576108ba61060c565b6108ce816108c884546107fc565b8461084f565b602080601f83116001811461090757600084156108eb5750858301515b60028086026008870290910a6000190419821617865550610897565b600085815260208120601f198616915b8281101561093657888601518255948401946001909101908401610917565b508582101561095657878501516008601f88160260020a60001904191681555b5050505050600202600101905550565b60208082526026908201527f4f6e6c7920746865206f776e65722063616e20706572666f726d20746869732060408201527f616374696f6e000000000000000000000000000000000000000000000000000060608201526080019056fea264697066735822122032fb449024b87d9fcc3d23bca2dd9268cbec50f6602eeaafac1a17567cda01f964736f6c63430008190033",
  "immutableReferences": {},
  "source": "// SPDX-License-Identifier: GPL-3.0\r\npragma solidity ^0.8.24;\r\n\r\n// Define a new error called Unauthorized\r\nerror Unauthorized();\r\n\r\ncontract BasicNFTFunctionsAndModifiers {\r\n\r\n    // Define a struct to represent an NFT\r\n    struct NFT {\r\n        address owner;\r\n        string tokenURI;\r\n    }\r\n\r\n    // Mapping from token ID to NFT\r\n    mapping(uint256 => NFT) public nfts;\r\n\r\n    // Mapping to store minting permissions\r\n    mapping(address => bool) public minters;\r\n\r\n    // Declaration of a state variable to store the contract owner's address\r\n    address public owner;\r\n\r\n    // Event emitted when a new NFT is minted\r\n    event NFTMinted(uint256 indexed tokenId, address indexed owner, string tokenURI);\r\n\r\n    // Constructor function that runs once when the contract is deployed\r\n    constructor() {\r\n        // Set the contract owner\r\n        owner = msg.sender;\r\n        // Allow owner to mint NFTs by default\r\n        minters[msg.sender] = true;\r\n    }\r\n\r\n    // Modifier to check if the caller is the owner\r\n    modifier onlyOwner() {\r\n        require(msg.sender == owner, \"Only the owner can perform this action\");\r\n        _;\r\n    }\r\n\r\n    // Modifier to check if the caller is allowed to mint NFTs\r\n    modifier onlyMinter() {\r\n        require(minters[msg.sender], \"You are not authorized to mint NFTs\");\r\n        _;\r\n    }\r\n\r\n    // Function to mint a new NFT\r\n    function mintNFT(uint256 _tokenId, string memory _tokenURI) public onlyMinter {\r\n        // Checks if the token ID is not already in use\r\n        require(nfts[_tokenId].owner == address(0), \"Token ID already exists\");\r\n\r\n        // Create a new NFT with the given token ID and token URI\r\n        NFT memory newNFT = NFT(msg.sender, _tokenURI);\r\n        nfts[_tokenId] = newNFT;\r\n\r\n        // Emit an event for the minted NFT\r\n        emit NFTMinted(_tokenId, msg.sender, _tokenURI);\r\n    }\r\n\r\n    // Function to transfer ownership of an NFT\r\n    function transferOwnership(uint256 _tokenId, address _newOwner) public {\r\n        // Checks if the caller is the current owner of the NFT\r\n        require(nfts[_tokenId].owner == msg.sender, \"You don't own this NFT\");\r\n\r\n        // Update the owner of the NFT\r\n        nfts[_tokenId].owner = _newOwner;\r\n    }\r\n\r\n    // Function to get the owner of an NFT\r\n    function getOwner(uint256 _tokenId) public view returns (address) {\r\n        return nfts[_tokenId].owner;\r\n    }\r\n\r\n    // Function to get the token URI of an NFT\r\n    function getTokenURI(uint256 _tokenId) public view returns (string memory) {\r\n        return nfts[_tokenId].tokenURI;\r\n    }\r\n\r\n    // Function to grant minting permission to an address\r\n    function grantMinter(address _minter) public onlyOwner {\r\n        minters[_minter] = true;\r\n    }\r\n\r\n    // Function to revoke minting permission from an address\r\n    function revokeMinter(address _minter) public onlyOwner {\r\n        minters[_minter] = false;\r\n    }\r\n}",
  "sourcePath": "C:\\Users\\ronal\\Documents\\Projetos\\thechaincademy-couse\\contracts\\FunctionsAndModifiers.sol",
  "compiler": {
    "name": "solc",
    "version": "0.8.25+commit.b61c2a91.Emscripten.clang"
  },
  "schemaVersion": "3.4.16",
  "updatedAt": "2024-03-22T13:44:46.705Z",
  "devdoc": {
    "kind": "dev",
    "methods": {},
    "version": 1
  },
  "userdoc": {
    "kind": "user",
    "methods": {},
    "version": 1
  }
}