{
  "contractName": "BasicNFTErrorHandling",
  "abi": [
    {
      "inputs": [],
      "stateMutability": "nonpayable",
      "type": "constructor"
    },
    {
      "inputs": [],
      "name": "TokenIdIsAlreadyInUse",
      "type": "error"
    },
    {
      "anonymous": false,
      "inputs": [
        {
          "indexed": true,
          "internalType": "uint256",
          "name": "tokenId",
          "type": "uint256"
        },
        {
          "indexed": true,
          "internalType": "address",
          "name": "owner",
          "type": "address"
        },
        {
          "indexed": false,
          "internalType": "string",
          "name": "tokenURI",
          "type": "string"
        }
      ],
      "name": "NFTMinted",
      "type": "event"
    },
    {
      "inputs": [
        {
          "internalType": "address",
          "name": "",
          "type": "address"
        }
      ],
      "name": "minters",
      "outputs": [
        {
          "internalType": "bool",
          "name": "",
          "type": "bool"
        }
      ],
      "stateMutability": "view",
      "type": "function"
    },
    {
      "inputs": [
        {
          "internalType": "uint256",
          "name": "",
          "type": "uint256"
        }
      ],
      "name": "nfts",
      "outputs": [
        {
          "internalType": "address",
          "name": "owner",
          "type": "address"
        },
        {
          "internalType": "string",
          "name": "tokenURI",
          "type": "string"
        }
      ],
      "stateMutability": "view",
      "type": "function"
    },
    {
      "inputs": [],
      "name": "owner",
      "outputs": [
        {
          "internalType": "address",
          "name": "",
          "type": "address"
        }
      ],
      "stateMutability": "view",
      "type": "function"
    },
    {
      "inputs": [
        {
          "internalType": "uint256",
          "name": "_tokenId",
          "type": "uint256"
        },
        {
          "internalType": "string",
          "name": "_tokenURI",
          "type": "string"
        }
      ],
      "name": "mintNFT",
      "outputs": [],
      "stateMutability": "nonpayable",
      "type": "function"
    },
    {
      "inputs": [
        {
          "internalType": "uint256",
          "name": "_tokenId",
          "type": "uint256"
        },
        {
          "internalType": "address",
          "name": "_newOwner",
          "type": "address"
        }
      ],
      "name": "transferOwnership",
      "outputs": [],
      "stateMutability": "nonpayable",
      "type": "function"
    },
    {
      "inputs": [
        {
          "internalType": "uint256",
          "name": "_tokenId",
          "type": "uint256"
        }
      ],
      "name": "getOwner",
      "outputs": [
        {
          "internalType": "address",
          "name": "",
          "type": "address"
        }
      ],
      "stateMutability": "view",
      "type": "function"
    },
    {
      "inputs": [
        {
          "internalType": "uint256",
          "name": "_tokenId",
          "type": "uint256"
        }
      ],
      "name": "getTokenURI",
      "outputs": [
        {
          "internalType": "string",
          "name": "",
          "type": "string"
        }
      ],
      "stateMutability": "view",
      "type": "function"
    },
    {
      "inputs": [
        {
          "internalType": "address",
          "name": "_minter",
          "type": "address"
        }
      ],
      "name": "grantMinter",
      "outputs": [],
      "stateMutability": "nonpayable",
      "type": "function"
    },
    {
      "inputs": [
        {
          "internalType": "address",
          "name": "_minter",
          "type": "address"
        }
      ],
      "name": "revokeMinter",
      "outputs": [],
      "stateMutability": "nonpayable",
      "type": "function"
    }
  ],
  "bytecode": "0x6080604052348015600f57600080fd5b5060028054600160a060020a031916339081179091556000908152600160208190526040909120805460ff191690911790556109e0806100506000396000f3fe608060405234801561001057600080fd5b50600436106100b0576000357c0100000000000000000000000000000000000000000000000000000000900480633bb3a24d116100835780633bb3a24d1461011a5780638da5cb5b1461013a578063c41a360a14610165578063cfbd48851461018e578063f46eccc4146101a157600080fd5b80631a0c8fa0146100b5578063261707fa146100ca578063265aa621146100dd57806329507f7314610107575b600080fd5b6100c86100c3366004610622565b6101d4565b005b6100c86100d83660046106f9565b610359565b6100f06100eb36600461071b565b6103ad565b6040516100fe92919061077a565b60405180910390f35b6100c86101153660046107a4565b61045c565b61012d61012836600461071b565b610500565b6040516100fe91906107d0565b60025461014d90600160a060020a031681565b604051600160a060020a0390911681526020016100fe565b61014d61017336600461071b565b600090815260208190526040902054600160a060020a031690565b6100c861019c3660046106f9565b6105a5565b6101c46101af3660046106f9565b60016020526000908152604090205460ff1681565b60405190151581526020016100fe565b3360009081526001602052604090205460ff166102615760405160e560020a62461bcd02815260206004820152602360248201527f596f7520617265206e6f7420617574686f72697a656420746f206d696e74204e60448201527f465473000000000000000000000000000000000000000000000000000000000060648201526084015b60405180910390fd5b600082815260208190526040902054600160a060020a0316156102b0576040517f01aa2ac700000000000000000000000000000000000000000000000000000000815260040160405180910390fd5b60408051808201825233815260208082018481526000868152918290529290208151815473ffffffffffffffffffffffffffffffffffffffff1916600160a060020a03909116178155915190918291600182019061030e9082610887565b5090505033600160a060020a0316837f06becd955c918828f6e985541acbf49cc842c9e9bd569fffc7698e721ef135758460405161034c91906107d0565b60405180910390a3505050565b600254600160a060020a031633146103865760405160e560020a62461bcd0281526004016102589061094d565b600160a060020a03166000908152600160208190526040909120805460ff19169091179055565b60006020819052908152604090208054600182018054600160a060020a0390921692916103d9906107e3565b80601f0160208091040260200160405190810160405280929190818152602001828054610405906107e3565b80156104525780601f1061042757610100808354040283529160200191610452565b820191906000526020600020905b81548152906001019060200180831161043557829003601f168201915b5050505050905082565b600082815260208190526040902054600160a060020a031633146104c55760405160e560020a62461bcd02815260206004820152601660248201527f596f7520646f6e2774206f776e2074686973204e4654000000000000000000006044820152606401610258565b600091825260208290526040909120805473ffffffffffffffffffffffffffffffffffffffff1916600160a060020a03909216919091179055565b6000818152602081905260409020600101805460609190610520906107e3565b80601f016020809104026020016040519081016040528092919081815260200182805461054c906107e3565b80156105995780601f1061056e57610100808354040283529160200191610599565b820191906000526020600020905b81548152906001019060200180831161057c57829003601f168201915b50505050509050919050565b600254600160a060020a031633146105d25760405160e560020a62461bcd0281526004016102589061094d565b600160a060020a03166000908152600160205260409020805460ff19169055565b7f4e487b7100000000000000000000000000000000000000000000000000000000600052604160045260246000fd5b6000806040838503121561063557600080fd5b82359150602083013567ffffffffffffffff8082111561065457600080fd5b818501915085601f83011261066857600080fd5b81358181111561067a5761067a6105f3565b604051601f8201601f19908116603f011681019083821181831017156106a2576106a26105f3565b816040528281528860208487010111156106bb57600080fd5b8260208601602083013760006020848301015280955050505050509250929050565b8035600160a060020a03811681146106f457600080fd5b919050565b60006020828403121561070b57600080fd5b610714826106dd565b9392505050565b60006020828403121561072d57600080fd5b5035919050565b6000815180845260005b8181101561075a5760208185018101518683018201520161073e565b506000602082860101526020601f19601f83011685010191505092915050565b600160a060020a038316815260406020820152600061079c6040830184610734565b949350505050565b600080604083850312156107b757600080fd5b823591506107c7602084016106dd565b90509250929050565b6020815260006107146020830184610734565b6002810460018216806107f757607f821691505b602082108103610830577f4e487b7100000000000000000000000000000000000000000000000000000000600052602260045260246000fd5b50919050565b601f8211156108825760008160005260206000206020601f8601048101602086101561085f5750805b6020601f860104820191505b8181101561087e5782815560010161086b565b5050505b505050565b815167ffffffffffffffff8111156108a1576108a16105f3565b6108b5816108af84546107e3565b84610836565b602080601f8311600181146108ee57600084156108d25750858301515b60028086026008870290910a600019041982161786555061087e565b600085815260208120601f198616915b8281101561091d578886015182559484019460019091019084016108fe565b508582101561093d57878501516008601f88160260020a60001904191681555b5050505050600202600101905550565b60208082526026908201527f4f6e6c7920746865206f776e65722063616e20706572666f726d20746869732060408201527f616374696f6e000000000000000000000000000000000000000000000000000060608201526080019056fea2646970667358221220dc40fff154cb5416b5d0ea8a760e9864ccdd56347f37b2868d4f3ac37f713d3264736f6c63430008190033",
  "immutableReferences": {},
  "source": "// SPDX-License-Identifier: GPL-3.0\r\npragma solidity ^0.8.24;\r\n\r\n// Define a new error called Unauthorized\r\nerror TokenIdIsAlreadyInUse();\r\n\r\ncontract BasicNFTErrorHandling {\r\n\r\n    // Define a struct to represent an NFT\r\n    struct NFT {\r\n        address owner;\r\n        string tokenURI;\r\n    }\r\n\r\n    // Mapping from token ID to NFT\r\n    mapping(uint256 => NFT) public nfts;\r\n\r\n    // Mapping to store minting permissions\r\n    mapping(address => bool) public minters;\r\n\r\n    // Declaration of a state variable to store the contract owner's address\r\n    address public owner;\r\n\r\n    // Event emitted when a new NFT is minted\r\n    event NFTMinted(uint256 indexed tokenId, address indexed owner, string tokenURI);\r\n\r\n    // Constructor function that runs once when the contract is deployed\r\n    constructor() {\r\n        // Set the contract owner\r\n        owner = msg.sender;\r\n        // Allow owner to mint NFTs by default\r\n        minters[msg.sender] = true;\r\n    }\r\n\r\n    // Modifier to check if the caller is the owner\r\n    modifier onlyOwner() {\r\n        require(msg.sender == owner, \"Only the owner can perform this action\");\r\n        _;\r\n    }\r\n\r\n    // Modifier to check if the caller is allowed to mint NFTs\r\n    modifier onlyMinter() {\r\n        require(minters[msg.sender], \"You are not authorized to mint NFTs\");\r\n        _;\r\n    }\r\n\r\n    // Function to mint a new NFT\r\n    function mintNFT(uint256 _tokenId, string memory _tokenURI) public onlyMinter {\r\n        // Checks if the token ID is not already in use\r\n        if (nfts[_tokenId].owner != address(0))\r\n            revert TokenIdIsAlreadyInUse();\r\n\r\n        // Create a new NFT with the given token ID and token URI\r\n        NFT memory newNFT = NFT(msg.sender, _tokenURI);\r\n        nfts[_tokenId] = newNFT;\r\n\r\n        // Emit an event for the minted NFT\r\n        emit NFTMinted(_tokenId, msg.sender, _tokenURI);\r\n    }\r\n\r\n    // Function to transfer ownership of an NFT\r\n    function transferOwnership(uint256 _tokenId, address _newOwner) public {\r\n        // Checks if the caller is the current owner of the NFT\r\n        require(nfts[_tokenId].owner == msg.sender, \"You don't own this NFT\");\r\n\r\n        // Update the owner of the NFT\r\n        nfts[_tokenId].owner = _newOwner;\r\n    }\r\n\r\n    // Function to get the owner of an NFT\r\n    function getOwner(uint256 _tokenId) public view returns (address) {\r\n        return nfts[_tokenId].owner;\r\n    }\r\n\r\n    // Function to get the token URI of an NFT\r\n    function getTokenURI(uint256 _tokenId) public view returns (string memory) {\r\n        return nfts[_tokenId].tokenURI;\r\n    }\r\n\r\n    // Function to grant minting permission to an address\r\n    function grantMinter(address _minter) public onlyOwner {\r\n        minters[_minter] = true;\r\n    }\r\n\r\n    // Function to revoke minting permission from an address\r\n    function revokeMinter(address _minter) public onlyOwner {\r\n        minters[_minter] = false;\r\n    }\r\n}",
  "sourcePath": "C:\\Users\\ronal\\Documents\\Projetos\\thechaincademy-couse\\contracts\\ErrorHandling.sol",
  "compiler": {
    "name": "solc",
    "version": "0.8.25+commit.b61c2a91.Emscripten.clang"
  },
  "schemaVersion": "3.4.16",
  "updatedAt": "2024-03-22T13:44:46.701Z",
  "devdoc": {
    "kind": "dev",
    "methods": {},
    "version": 1
  },
  "userdoc": {
    "kind": "user",
    "methods": {},
    "version": 1
  }
}