{
  "contractName": "ConvertLib",
  "abi": [
    {
      "inputs": [
        {
          "internalType": "uint256",
          "name": "amount",
          "type": "uint256"
        },
        {
          "internalType": "uint256",
          "name": "conversionRate",
          "type": "uint256"
        }
      ],
      "name": "convert",
      "outputs": [
        {
          "internalType": "uint256",
          "name": "convertedAmount",
          "type": "uint256"
        }
      ],
      "stateMutability": "pure",
      "type": "function",
      "constant": true
    }
  ],
  "bytecode": "0x61011c610052600b82828239805160001a6073146045577f4e487b7100000000000000000000000000000000000000000000000000000000600052600060045260246000fd5b30600052607381538281f3fe7300000000000000000000000000000000000000003014608060405260043610604f577c0100000000000000000000000000000000000000000000000000000000600035046396e4ee3d81146054575b600080fd5b6063605f3660046088565b6075565b60405190815260200160405180910390f35b6000607f828460a9565b90505b92915050565b60008060408385031215609a57600080fd5b50508035926020909101359150565b80820281158282048414176082577f4e487b7100000000000000000000000000000000000000000000000000000000600052601160045260246000fdfea264697066735822122017fec8cac8ea3e5242424b12c3bff972481cd71724d392468eea38839360af3464736f6c63430008190033",
  "immutableReferences": {},
  "source": "// SPDX-License-Identifier: GPL-3.0\npragma solidity ^0.8.24;\n\nlibrary ConvertLib{\n\tfunction convert(uint amount,uint conversionRate) public pure returns (uint convertedAmount)\n\t{\n\t\treturn amount * conversionRate;\n\t}\n}\n",
  "sourcePath": "C:\\Users\\ronal\\Documents\\Projetos\\thechaincademy-couse\\contracts\\ConvertLib.sol",
  "compiler": {
    "name": "solc",
    "version": "0.8.25+commit.b61c2a91.Emscripten.clang"
  },
  "schemaVersion": "3.4.16",
  "updatedAt": "2024-03-22T13:44:48.288Z",
  "networkType": "ethereum",
  "devdoc": {
    "kind": "dev",
    "methods": {},
    "version": 1
  },
  "userdoc": {
    "kind": "user",
    "methods": {},
    "version": 1
  }
}