{
  "contractName": "DataTypesAndVariables",
  "abi": [
    {
      "inputs": [],
      "stateMutability": "nonpayable",
      "type": "constructor"
    },
    {
      "anonymous": false,
      "inputs": [
        {
          "indexed": true,
          "internalType": "uint256",
          "name": "tokenId",
          "type": "uint256"
        },
        {
          "indexed": true,
          "internalType": "address",
          "name": "owner",
          "type": "address"
        },
        {
          "indexed": false,
          "internalType": "string",
          "name": "tokenURI",
          "type": "string"
        }
      ],
      "name": "NFTMinted",
      "type": "event"
    },
    {
      "inputs": [
        {
          "internalType": "uint256",
          "name": "",
          "type": "uint256"
        }
      ],
      "name": "nfts",
      "outputs": [
        {
          "internalType": "address",
          "name": "owner",
          "type": "address"
        },
        {
          "internalType": "string",
          "name": "tokenURI",
          "type": "string"
        }
      ],
      "stateMutability": "view",
      "type": "function",
      "constant": true
    },
    {
      "inputs": [],
      "name": "owner",
      "outputs": [
        {
          "internalType": "address",
          "name": "",
          "type": "address"
        }
      ],
      "stateMutability": "view",
      "type": "function",
      "constant": true
    },
    {
      "inputs": [
        {
          "internalType": "uint256",
          "name": "_tokenId",
          "type": "uint256"
        },
        {
          "internalType": "string",
          "name": "_tokenURI",
          "type": "string"
        }
      ],
      "name": "mintNFT",
      "outputs": [],
      "stateMutability": "nonpayable",
      "type": "function"
    },
    {
      "inputs": [
        {
          "internalType": "uint256",
          "name": "_tokenId",
          "type": "uint256"
        },
        {
          "internalType": "address",
          "name": "_newOwner",
          "type": "address"
        }
      ],
      "name": "transferNFT",
      "outputs": [],
      "stateMutability": "nonpayable",
      "type": "function"
    },
    {
      "inputs": [
        {
          "internalType": "uint256",
          "name": "_tokenId",
          "type": "uint256"
        }
      ],
      "name": "getOwner",
      "outputs": [
        {
          "internalType": "address",
          "name": "",
          "type": "address"
        }
      ],
      "stateMutability": "view",
      "type": "function",
      "constant": true
    },
    {
      "inputs": [
        {
          "internalType": "uint256",
          "name": "_tokenId",
          "type": "uint256"
        }
      ],
      "name": "getTokenURI",
      "outputs": [
        {
          "internalType": "string",
          "name": "",
          "type": "string"
        }
      ],
      "stateMutability": "view",
      "type": "function",
      "constant": true
    }
  ],
  "bytecode": "0x6080604052348015600f57600080fd5b5060018054600160a060020a03191633179055610862806100316000396000f3fe608060405234801561001057600080fd5b506004361061007e577c010000000000000000000000000000000000000000000000000000000060003504631a0c8fa08114610083578063265aa621146100985780633bb3a24d146100c25780638da5cb5b146100e25780639036c0501461010d578063c41a360a14610120575b600080fd5b610096610091366004610528565b610149565b005b6100ab6100a63660046105e3565b6102ea565b6040516100b9929190610642565b60405180910390f35b6100d56100d03660046105e3565b610399565b6040516100b9919061066c565b6001546100f590600160a060020a031681565b604051600160a060020a0390911681526020016100b9565b61009661011b366004610686565b61043e565b6100f561012e3660046105e3565b600090815260208190526040902054600160a060020a031690565b600154600160a060020a031633146101c2576040517f08c379a000000000000000000000000000000000000000000000000000000000815260206004820152601c60248201527f4f6e6c7920746865206f776e65722063616e206d696e74204e4654730000000060448201526064015b60405180910390fd5b600082815260208190526040902054600160a060020a031615610241576040517f08c379a000000000000000000000000000000000000000000000000000000000815260206004820152601760248201527f546f6b656e20494420616c72656164792065786973747300000000000000000060448201526064016101b9565b60408051808201825233815260208082018481526000868152918290529290208151815473ffffffffffffffffffffffffffffffffffffffff1916600160a060020a03909116178155915190918291600182019061029f9082610766565b5090505033600160a060020a0316837f06becd955c918828f6e985541acbf49cc842c9e9bd569fffc7698e721ef13575846040516102dd919061066c565b60405180910390a3505050565b60006020819052908152604090208054600182018054600160a060020a039092169291610316906106c2565b80601f0160208091040260200160405190810160405280929190818152602001828054610342906106c2565b801561038f5780601f106103645761010080835404028352916020019161038f565b820191906000526020600020905b81548152906001019060200180831161037257829003601f168201915b5050505050905082565b60008181526020819052604090206001018054606091906103b9906106c2565b80601f01602080910402602001604051908101604052809291908181526020018280546103e5906106c2565b80156104325780601f1061040757610100808354040283529160200191610432565b820191906000526020600020905b81548152906001019060200180831161041557829003601f168201915b50505050509050919050565b600082815260208190526040902054600160a060020a031633146104be576040517f08c379a000000000000000000000000000000000000000000000000000000000815260206004820152601660248201527f596f7520646f6e2774206f776e2074686973204e46540000000000000000000060448201526064016101b9565b600091825260208290526040909120805473ffffffffffffffffffffffffffffffffffffffff1916600160a060020a03909216919091179055565b7f4e487b7100000000000000000000000000000000000000000000000000000000600052604160045260246000fd5b6000806040838503121561053b57600080fd5b82359150602083013567ffffffffffffffff8082111561055a57600080fd5b818501915085601f83011261056e57600080fd5b813581811115610580576105806104f9565b604051601f8201601f19908116603f011681019083821181831017156105a8576105a86104f9565b816040528281528860208487010111156105c157600080fd5b8260208601602083013760006020848301015280955050505050509250929050565b6000602082840312156105f557600080fd5b5035919050565b6000815180845260005b8181101561062257602081850181015186830182015201610606565b506000602082860101526020601f19601f83011685010191505092915050565b600160a060020a038316815260406020820152600061066460408301846105fc565b949350505050565b60208152600061067f60208301846105fc565b9392505050565b6000806040838503121561069957600080fd5b823591506020830135600160a060020a03811681146106b757600080fd5b809150509250929050565b6002810460018216806106d657607f821691505b60208210810361070f577f4e487b7100000000000000000000000000000000000000000000000000000000600052602260045260246000fd5b50919050565b601f8211156107615760008160005260206000206020601f8601048101602086101561073e5750805b6020601f860104820191505b8181101561075d5782815560010161074a565b5050505b505050565b815167ffffffffffffffff811115610780576107806104f9565b6107948161078e84546106c2565b84610715565b602080601f8311600181146107cd57600084156107b15750858301515b60028086026008870290910a600019041982161786555061075d565b600085815260208120601f198616915b828110156107fc578886015182559484019460019091019084016107dd565b508582101561081c57878501516008601f88160260020a60001904191681555b505050505060020260010190555056fea264697066735822122065a150b500df9a83495991de6f421c282c601829b342ae125805e51d5c261dcb64736f6c63430008190033",
  "immutableReferences": {},
  "source": "// SPDX-License-Identifier: GPL-3.0\r\npragma solidity ^0.8.24;\r\n\r\n// Define a new error called Unauthorized\r\nerror Unauthorized();\r\n\r\ncontract DataTypesAndVariables {\r\n\r\n    // Define a struct to represent an NFT\r\n    struct NFT {\r\n        address owner;\r\n        string tokenURI;\r\n    }\r\n\r\n    // Mapping from token ID to NFT\r\n    mapping(uint256 => NFT) public nfts;\r\n\r\n    // Declaration of a state variable to store the contract owner's address\r\n    address public owner;\r\n\r\n    // Event emitted when a new NFT is minted\r\n    event NFTMinted(uint256 indexed tokenId, address indexed owner, string tokenURI);\r\n\r\n    // Constructor function that runs once when the contract is deployed\r\n    constructor() {\r\n        // Set the contract owner\r\n        owner = msg.sender;\r\n    }\r\n\r\n    // Function to mint a new NFT\r\n    function mintNFT(uint256 _tokenId, string memory _tokenURI) public {\r\n        // Checks if the caller is the owner\r\n        require(msg.sender == owner, \"Only the owner can mint NFTs\");\r\n        // Checks if the token ID is not already in use\r\n        require(nfts[_tokenId].owner == address(0), \"Token ID already exists\");\r\n\r\n        // Create a new NFT with the given token ID and token URI\r\n        NFT memory newNFT = NFT(msg.sender, _tokenURI);\r\n        nfts[_tokenId] = newNFT;\r\n\r\n        // Emit an event for the minted NFT\r\n        emit NFTMinted(_tokenId, msg.sender, _tokenURI);\r\n    }\r\n\r\n    // Function to transfer ownership of an NFT\r\n    function transferNFT(uint256 _tokenId, address _newOwner) public {\r\n        // Checks if the caller is the current owner of the NFT\r\n        require(nfts[_tokenId].owner == msg.sender, \"You don't own this NFT\");\r\n\r\n        // Update the owner of the NFT\r\n        nfts[_tokenId].owner = _newOwner;\r\n    }\r\n\r\n    // Function to get the owner of an NFT\r\n    function getOwner(uint256 _tokenId) public view returns (address) {\r\n        return nfts[_tokenId].owner;\r\n    }\r\n\r\n    // Function to get the token URI of an NFT\r\n    function getTokenURI(uint256 _tokenId) public view returns (string memory) {\r\n        return nfts[_tokenId].tokenURI;\r\n    }\r\n}",
  "sourcePath": "C:\\Users\\ronal\\Documents\\Projetos\\thechaincademy-couse\\contracts\\DataTypesAndVariables.sol",
  "compiler": {
    "name": "solc",
    "version": "0.8.25+commit.b61c2a91.Emscripten.clang"
  },
  "schemaVersion": "3.4.16",
  "updatedAt": "2024-03-22T13:44:48.292Z",
  "networkType": "ethereum",
  "devdoc": {
    "kind": "dev",
    "methods": {},
    "version": 1
  },
  "userdoc": {
    "kind": "user",
    "methods": {},
    "version": 1
  }
}