{
  "contractName": "Person",
  "abi": [
    {
      "inputs": [
        {
          "internalType": "uint256",
          "name": "_age",
          "type": "uint256"
        }
      ],
      "stateMutability": "nonpayable",
      "type": "constructor"
    },
    {
      "inputs": [],
      "name": "ageStage",
      "outputs": [
        {
          "internalType": "string",
          "name": "",
          "type": "string"
        }
      ],
      "stateMutability": "view",
      "type": "function"
    },
    {
      "inputs": [],
      "name": "getAge",
      "outputs": [
        {
          "internalType": "uint256",
          "name": "",
          "type": "uint256"
        }
      ],
      "stateMutability": "view",
      "type": "function"
    },
    {
      "inputs": [],
      "name": "yearPasses",
      "outputs": [
        {
          "internalType": "string",
          "name": "",
          "type": "string"
        }
      ],
      "stateMutability": "nonpayable",
      "type": "function"
    }
  ],
  "bytecode": "0x6080604052348015600f57600080fd5b5060405161036d38038061036d833981016040819052602c916033565b600055604b565b600060208284031215604457600080fd5b5051919050565b6103138061005a6000396000f3fe608060405234801561001057600080fd5b506004361061005d577c0100000000000000000000000000000000000000000000000000000000600035046354d32e8c8114610062578063967e6e6514610080578063e18caf1414610091575b600080fd5b61006a610099565b604051610077919061024e565b60405180910390f35b600054604051908152602001610077565b61006a6101fd565b6060600360005410156100de575060408051808201909152600e81527f596f752061726520612062616279000000000000000000000000000000000000602082015290565b600d6000541015610121575060408051808201909152600f81527f596f75206172652061206368696c640000000000000000000000000000000000602082015290565b600d6000541015801561013657506012600054105b15610173575060408051808201909152601281527f596f75206172652061207465656e616765720000000000000000000000000000602082015290565b60126000541015801561018857506041600054105b156101c5575060408051808201909152601081527f596f752061726520616e206164756c7400000000000000000000000000000000602082015290565b5060408051808201909152601981527f596f752061726520616e20656c6465726c7920706572736f6e00000000000000602082015290565b6040805180820190915260208082527f436f6e67726174756c6174696f6e732c20486170707920426972746864617921908201526000805460609291806102438361029d565b909155509092915050565b60006020808352835180602085015260005b8181101561027c57858101830151858201604001528201610260565b506000604082860101526040601f19601f8301168501019250505092915050565b6000600182016102d6577f4e487b7100000000000000000000000000000000000000000000000000000000600052601160045260246000fd5b506001019056fea2646970667358221220767e36cb18b4bddc53890441611fe4c29058222408a08f29b83333c2adb5989164736f6c63430008190033",
  "immutableReferences": {},
  "source": "// SPDX-License-Identifier: GPL-3.0\r\npragma solidity ^0.8.24;\r\n\r\nabstract contract People {\r\n\r\n    uint256 age;\r\n\r\n    function getAge() public view returns (uint256) {\r\n        return age;\r\n    }\r\n\r\n    function yearPasses() public virtual returns (string memory) {\r\n         string memory message = \"Happy Birthday!\";\r\n        age++;\r\n        return message;\r\n    }\r\n\r\n    function ageStage() public view virtual returns (string memory) {\r\n        if (age < 3) {\r\n            return \"You are a baby\";\r\n        } else if (age < 13) {\r\n            return \"You are a child\";\r\n        } else if (age >= 13 && age < 18) {\r\n            return \"You are a teenager\";\r\n        } else if (age >= 18 && age < 65) {\r\n            return \"You are an adult\";\r\n        } else {\r\n            return \"You are an elderly person\";\r\n        }\r\n    }\r\n\r\n    constructor (uint256 _age) {\r\n        age = _age;\r\n    }\r\n\r\n}\r\n\r\ncontract Person is People {\r\n\r\n    function yearPasses() public override returns (string memory) {\r\n         string memory message = \"Congratulations, Happy Birthday!\";\r\n        age++;\r\n        return message;\r\n    }\r\n\r\n    constructor(uint256 _age) People(_age) {\r\n\r\n    }\r\n\r\n}",
  "sourcePath": "C:\\Users\\ronal\\Documents\\Projetos\\thechaincademy-couse\\contracts\\Inheritance.sol",
  "compiler": {
    "name": "solc",
    "version": "0.8.25+commit.b61c2a91.Emscripten.clang"
  },
  "schemaVersion": "3.4.16",
  "updatedAt": "2024-03-22T13:44:46.709Z",
  "devdoc": {
    "kind": "dev",
    "methods": {},
    "version": 1
  },
  "userdoc": {
    "kind": "user",
    "methods": {},
    "version": 1
  }
}